{
  "_format": "hh-sol-artifact-1",
  "contractName": "Dwitter",
  "sourceName": "contracts/Dwitter.sol",
  "abi": [
    {
      "inputs": [
        {
          "internalType": "string",
          "name": "_content",
          "type": "string"
        },
        {
          "internalType": "string",
          "name": "_id",
          "type": "string"
        },
        {
          "internalType": "string[]",
          "name": "_images",
          "type": "string[]"
        }
      ],
      "name": "addDweet",
      "outputs": [],
      "stateMutability": "nonpayable",
      "type": "function"
    },
    {
      "inputs": [
        {
          "internalType": "uint256",
          "name": "",
          "type": "uint256"
        }
      ],
      "name": "dweets",
      "outputs": [
        {
          "components": [
            {
              "internalType": "address",
              "name": "wallet",
              "type": "address"
            },
            {
              "internalType": "string",
              "name": "name",
              "type": "string"
            },
            {
              "internalType": "string",
              "name": "username",
              "type": "string"
            },
            {
              "internalType": "string",
              "name": "bio",
              "type": "string"
            },
            {
              "internalType": "string",
              "name": "avatar",
              "type": "string"
            }
          ],
          "internalType": "struct Dwitter.User",
          "name": "author",
          "type": "tuple"
        },
        {
          "internalType": "string",
          "name": "id",
          "type": "string"
        },
        {
          "internalType": "string",
          "name": "content",
          "type": "string"
        },
        {
          "internalType": "uint256",
          "name": "timestamp",
          "type": "uint256"
        }
      ],
      "stateMutability": "view",
      "type": "function"
    },
    {
      "inputs": [],
      "name": "getDweets",
      "outputs": [
        {
          "components": [
            {
              "components": [
                {
                  "internalType": "address",
                  "name": "wallet",
                  "type": "address"
                },
                {
                  "internalType": "string",
                  "name": "name",
                  "type": "string"
                },
                {
                  "internalType": "string",
                  "name": "username",
                  "type": "string"
                },
                {
                  "internalType": "string",
                  "name": "bio",
                  "type": "string"
                },
                {
                  "internalType": "string",
                  "name": "avatar",
                  "type": "string"
                }
              ],
              "internalType": "struct Dwitter.User",
              "name": "author",
              "type": "tuple"
            },
            {
              "internalType": "string",
              "name": "id",
              "type": "string"
            },
            {
              "internalType": "string",
              "name": "content",
              "type": "string"
            },
            {
              "internalType": "uint256",
              "name": "timestamp",
              "type": "uint256"
            },
            {
              "internalType": "string[]",
              "name": "images",
              "type": "string[]"
            },
            {
              "internalType": "address[]",
              "name": "likes",
              "type": "address[]"
            }
          ],
          "internalType": "struct Dwitter.Dweet[]",
          "name": "",
          "type": "tuple[]"
        }
      ],
      "stateMutability": "view",
      "type": "function"
    },
    {
      "inputs": [
        {
          "internalType": "address",
          "name": "_wallet",
          "type": "address"
        }
      ],
      "name": "getUser",
      "outputs": [
        {
          "components": [
            {
              "internalType": "address",
              "name": "wallet",
              "type": "address"
            },
            {
              "internalType": "string",
              "name": "name",
              "type": "string"
            },
            {
              "internalType": "string",
              "name": "username",
              "type": "string"
            },
            {
              "internalType": "string",
              "name": "bio",
              "type": "string"
            },
            {
              "internalType": "string",
              "name": "avatar",
              "type": "string"
            }
          ],
          "internalType": "struct Dwitter.User",
          "name": "",
          "type": "tuple"
        }
      ],
      "stateMutability": "view",
      "type": "function"
    },
    {
      "inputs": [
        {
          "internalType": "string",
          "name": "_id",
          "type": "string"
        }
      ],
      "name": "likeDweet",
      "outputs": [],
      "stateMutability": "nonpayable",
      "type": "function"
    },
    {
      "inputs": [
        {
          "internalType": "string",
          "name": "_username",
          "type": "string"
        },
        {
          "internalType": "string",
          "name": "_name",
          "type": "string"
        },
        {
          "internalType": "string",
          "name": "_bio",
          "type": "string"
        },
        {
          "internalType": "string",
          "name": "_avatar",
          "type": "string"
        }
      ],
      "name": "signup",
      "outputs": [],
      "stateMutability": "nonpayable",
      "type": "function"
    },
    {
      "inputs": [
        {
          "internalType": "address",
          "name": "",
          "type": "address"
        }
      ],
      "name": "usernames",
      "outputs": [
        {
          "internalType": "string",
          "name": "",
          "type": "string"
        }
      ],
      "stateMutability": "view",
      "type": "function"
    },
    {
      "inputs": [
        {
          "internalType": "string",
          "name": "",
          "type": "string"
        }
      ],
      "name": "users",
      "outputs": [
        {
          "internalType": "address",
          "name": "wallet",
          "type": "address"
        },
        {
          "internalType": "string",
          "name": "name",
          "type": "string"
        },
        {
          "internalType": "string",
          "name": "username",
          "type": "string"
        },
        {
          "internalType": "string",
          "name": "bio",
          "type": "string"
        },
        {
          "internalType": "string",
          "name": "avatar",
          "type": "string"
        }
      ],
      "stateMutability": "view",
      "type": "function"
    }
  ],
  "bytecode": "0x608060405234801561001057600080fd5b5061328f806100206000396000f3fe608060405234801561001057600080fd5b50600436106100885760003560e01c8063c01307831161005b578063c013078314610140578063d7798e5b1461015c578063ee91877c1461017a578063fcf58fa5146101aa57610088565b806336a343e41461008d57806337dc190c146100a9578063689e1c03146100dc5780636f77926b14610110575b600080fd5b6100a760048036038101906100a29190612460565b6101c6565b005b6100c360048036038101906100be91906125ba565b6107ba565b6040516100d39493929190612d19565b60405180910390f35b6100f660048036038101906100f1919061241f565b610bb2565b604051610107959493929190612b84565b60405180910390f35b61012a600480360381019061012591906123f6565b610e3e565b6040516101379190612cf7565b60405180910390f35b61015a6004803603810190610155919061241f565b611152565b005b610164611787565b6040516101719190612bf3565b60405180910390f35b610194600480360381019061018f91906123f6565b611d2d565b6040516101a19190612c15565b60405180910390f35b6101c460048036038101906101bf91906124f7565b611dcd565b005b6000600160003373ffffffffffffffffffffffffffffffffffffffff1673ffffffffffffffffffffffffffffffffffffffff168152602001908152602001600020805461021290612f9f565b905011610254576040517f08c379a000000000000000000000000000000000000000000000000000000000815260040161024b90612cb7565b60405180910390fd5b6000835111610298576040517f08c379a000000000000000000000000000000000000000000000000000000000815260040161028f90612c57565b60405180910390fd5b60006002600160003373ffffffffffffffffffffffffffffffffffffffff1673ffffffffffffffffffffffffffffffffffffffff1681526020019081526020016000206040516102e89190612b6d565b90815260200160405180910390206040518060a00160405290816000820160009054906101000a900473ffffffffffffffffffffffffffffffffffffffff1673ffffffffffffffffffffffffffffffffffffffff1673ffffffffffffffffffffffffffffffffffffffff16815260200160018201805461036790612f9f565b80601f016020809104026020016040519081016040528092919081815260200182805461039390612f9f565b80156103e05780601f106103b5576101008083540402835291602001916103e0565b820191906000526020600020905b8154815290600101906020018083116103c357829003601f168201915b505050505081526020016002820180546103f990612f9f565b80601f016020809104026020016040519081016040528092919081815260200182805461042590612f9f565b80156104725780601f1061044757610100808354040283529160200191610472565b820191906000526020600020905b81548152906001019060200180831161045557829003601f168201915b5050505050815260200160038201805461048b90612f9f565b80601f01602080910402602001604051908101604052809291908181526020018280546104b790612f9f565b80156105045780601f106104d957610100808354040283529160200191610504565b820191906000526020600020905b8154815290600101906020018083116104e757829003601f168201915b5050505050815260200160048201805461051d90612f9f565b80601f016020809104026020016040519081016040528092919081815260200182805461054990612f9f565b80156105965780601f1061056b57610100808354040283529160200191610596565b820191906000526020600020905b81548152906001019060200180831161057957829003601f168201915b505050505081525050905060006040518060c00160405280838152602001858152602001868152602001428152602001848152602001600067ffffffffffffffff81111561060d577f4e487b7100000000000000000000000000000000000000000000000000000000600052604160045260246000fd5b60405190808252806020026020018201604052801561063b5781602001602082028036833780820191505090505b50815250905060008190806001815401808255809150506001900390600052602060002090600a020160009091909190915060008201518160000160008201518160000160006101000a81548173ffffffffffffffffffffffffffffffffffffffff021916908373ffffffffffffffffffffffffffffffffffffffff16021790555060208201518160010190805190602001906106d992919061207e565b5060408201518160020190805190602001906106f692919061207e565b50606082015181600301908051906020019061071392919061207e565b50608082015181600401908051906020019061073092919061207e565b505050602082015181600501908051906020019061074f92919061207e565b50604082015181600601908051906020019061076c92919061207e565b50606082015181600701556080820151816008019080519060200190610793929190612104565b5060a08201518160090190805190602001906107b0929190612164565b5050505050505050565b600081815481106107ca57600080fd5b90600052602060002090600a0201600091509050806000016040518060a00160405290816000820160009054906101000a900473ffffffffffffffffffffffffffffffffffffffff1673ffffffffffffffffffffffffffffffffffffffff1673ffffffffffffffffffffffffffffffffffffffff16815260200160018201805461085390612f9f565b80601f016020809104026020016040519081016040528092919081815260200182805461087f90612f9f565b80156108cc5780601f106108a1576101008083540402835291602001916108cc565b820191906000526020600020905b8154815290600101906020018083116108af57829003601f168201915b505050505081526020016002820180546108e590612f9f565b80601f016020809104026020016040519081016040528092919081815260200182805461091190612f9f565b801561095e5780601f106109335761010080835404028352916020019161095e565b820191906000526020600020905b81548152906001019060200180831161094157829003601f168201915b5050505050815260200160038201805461097790612f9f565b80601f01602080910402602001604051908101604052809291908181526020018280546109a390612f9f565b80156109f05780601f106109c5576101008083540402835291602001916109f0565b820191906000526020600020905b8154815290600101906020018083116109d357829003601f168201915b50505050508152602001600482018054610a0990612f9f565b80601f0160208091040260200160405190810160405280929190818152602001828054610a3590612f9f565b8015610a825780601f10610a5757610100808354040283529160200191610a82565b820191906000526020600020905b815481529060010190602001808311610a6557829003601f168201915b50505050508152505090806005018054610a9b90612f9f565b80601f0160208091040260200160405190810160405280929190818152602001828054610ac790612f9f565b8015610b145780601f10610ae957610100808354040283529160200191610b14565b820191906000526020600020905b815481529060010190602001808311610af757829003601f168201915b505050505090806006018054610b2990612f9f565b80601f0160208091040260200160405190810160405280929190818152602001828054610b5590612f9f565b8015610ba25780601f10610b7757610100808354040283529160200191610ba2565b820191906000526020600020905b815481529060010190602001808311610b8557829003601f168201915b5050505050908060070154905084565b6002818051602081018201805184825260208301602085012081835280955050505050506000915090508060000160009054906101000a900473ffffffffffffffffffffffffffffffffffffffff1690806001018054610c1190612f9f565b80601f0160208091040260200160405190810160405280929190818152602001828054610c3d90612f9f565b8015610c8a5780601f10610c5f57610100808354040283529160200191610c8a565b820191906000526020600020905b815481529060010190602001808311610c6d57829003601f168201915b505050505090806002018054610c9f90612f9f565b80601f0160208091040260200160405190810160405280929190818152602001828054610ccb90612f9f565b8015610d185780601f10610ced57610100808354040283529160200191610d18565b820191906000526020600020905b815481529060010190602001808311610cfb57829003601f168201915b505050505090806003018054610d2d90612f9f565b80601f0160208091040260200160405190810160405280929190818152602001828054610d5990612f9f565b8015610da65780601f10610d7b57610100808354040283529160200191610da6565b820191906000526020600020905b815481529060010190602001808311610d8957829003601f168201915b505050505090806004018054610dbb90612f9f565b80601f0160208091040260200160405190810160405280929190818152602001828054610de790612f9f565b8015610e345780601f10610e0957610100808354040283529160200191610e34565b820191906000526020600020905b815481529060010190602001808311610e1757829003601f168201915b5050505050905085565b610e466121ee565b6002600160008473ffffffffffffffffffffffffffffffffffffffff1673ffffffffffffffffffffffffffffffffffffffff168152602001908152602001600020604051610e949190612b6d565b90815260200160405180910390206040518060a00160405290816000820160009054906101000a900473ffffffffffffffffffffffffffffffffffffffff1673ffffffffffffffffffffffffffffffffffffffff1673ffffffffffffffffffffffffffffffffffffffff168152602001600182018054610f1390612f9f565b80601f0160208091040260200160405190810160405280929190818152602001828054610f3f90612f9f565b8015610f8c5780601f10610f6157610100808354040283529160200191610f8c565b820191906000526020600020905b815481529060010190602001808311610f6f57829003601f168201915b50505050508152602001600282018054610fa590612f9f565b80601f0160208091040260200160405190810160405280929190818152602001828054610fd190612f9f565b801561101e5780601f10610ff35761010080835404028352916020019161101e565b820191906000526020600020905b81548152906001019060200180831161100157829003601f168201915b5050505050815260200160038201805461103790612f9f565b80601f016020809104026020016040519081016040528092919081815260200182805461106390612f9f565b80156110b05780601f10611085576101008083540402835291602001916110b0565b820191906000526020600020905b81548152906001019060200180831161109357829003601f168201915b505050505081526020016004820180546110c990612f9f565b80601f01602080910402602001604051908101604052809291908181526020018280546110f590612f9f565b80156111425780601f1061111757610100808354040283529160200191611142565b820191906000526020600020905b81548152906001019060200180831161112557829003601f168201915b5050505050815250509050919050565b6000600160003373ffffffffffffffffffffffffffffffffffffffff1673ffffffffffffffffffffffffffffffffffffffff168152602001908152602001600020805461119e90612f9f565b9050116111e0576040517f08c379a00000000000000000000000000000000000000000000000000000000081526004016111d790612c97565b60405180910390fd5b6000815111611224576040517f08c379a000000000000000000000000000000000000000000000000000000000815260040161121b90612cd7565b60405180910390fd5b60006001905060005b600080549050811015611781578260405160200161124b9190612b56565b604051602081830303815290604052805190602001206000828154811061129b577f4e487b7100000000000000000000000000000000000000000000000000000000600052603260045260246000fd5b90600052602060002090600a02016005016040516020016112bc9190612b6d565b60405160208183030381529060405280519060200120141561176e5760005b60008281548110611315577f4e487b7100000000000000000000000000000000000000000000000000000000600052603260045260246000fd5b90600052602060002090600a0201600901805490508110156116b3573373ffffffffffffffffffffffffffffffffffffffff1660008381548110611382577f4e487b7100000000000000000000000000000000000000000000000000000000600052603260045260246000fd5b90600052602060002090600a020160090182815481106113cb577f4e487b7100000000000000000000000000000000000000000000000000000000600052603260045260246000fd5b9060005260206000200160009054906101000a900473ffffffffffffffffffffffffffffffffffffffff1673ffffffffffffffffffffffffffffffffffffffff1614156116a0576000828154811061144c577f4e487b7100000000000000000000000000000000000000000000000000000000600052603260045260246000fd5b90600052602060002090600a0201600901600160008481548110611499577f4e487b7100000000000000000000000000000000000000000000000000000000600052603260045260246000fd5b90600052602060002090600a0201600901805490506114b89190612eed565b815481106114ef577f4e487b7100000000000000000000000000000000000000000000000000000000600052603260045260246000fd5b9060005260206000200160009054906101000a900473ffffffffffffffffffffffffffffffffffffffff1660008381548110611554577f4e487b7100000000000000000000000000000000000000000000000000000000600052603260045260246000fd5b90600052602060002090600a0201600901828154811061159d577f4e487b7100000000000000000000000000000000000000000000000000000000600052603260045260246000fd5b9060005260206000200160006101000a81548173ffffffffffffffffffffffffffffffffffffffff021916908373ffffffffffffffffffffffffffffffffffffffff1602179055506000828154811061161f577f4e487b7100000000000000000000000000000000000000000000000000000000600052603260045260246000fd5b90600052602060002090600a0201600901805480611666577f4e487b7100000000000000000000000000000000000000000000000000000000600052603160045260246000fd5b6001900381819060005260206000200160006101000a81549073ffffffffffffffffffffffffffffffffffffffff02191690559055600092505b80806116ab90613002565b9150506112db565b50811561176757600081815481106116f4577f4e487b7100000000000000000000000000000000000000000000000000000000600052603260045260246000fd5b90600052602060002090600a0201600901339080600181540180825580915050600190039060005260206000200160009091909190916101000a81548173ffffffffffffffffffffffffffffffffffffffff021916908373ffffffffffffffffffffffffffffffffffffffff1602179055505b5050611784565b808061177990613002565b91505061122d565b50505b50565b60606000805480602002602001604051908101604052809291908181526020016000905b82821015611d2457838290600052602060002090600a02016040518060c0016040529081600082016040518060a00160405290816000820160009054906101000a900473ffffffffffffffffffffffffffffffffffffffff1673ffffffffffffffffffffffffffffffffffffffff1673ffffffffffffffffffffffffffffffffffffffff16815260200160018201805461184490612f9f565b80601f016020809104026020016040519081016040528092919081815260200182805461187090612f9f565b80156118bd5780601f10611892576101008083540402835291602001916118bd565b820191906000526020600020905b8154815290600101906020018083116118a057829003601f168201915b505050505081526020016002820180546118d690612f9f565b80601f016020809104026020016040519081016040528092919081815260200182805461190290612f9f565b801561194f5780601f106119245761010080835404028352916020019161194f565b820191906000526020600020905b81548152906001019060200180831161193257829003601f168201915b5050505050815260200160038201805461196890612f9f565b80601f016020809104026020016040519081016040528092919081815260200182805461199490612f9f565b80156119e15780601f106119b6576101008083540402835291602001916119e1565b820191906000526020600020905b8154815290600101906020018083116119c457829003601f168201915b505050505081526020016004820180546119fa90612f9f565b80601f0160208091040260200160405190810160405280929190818152602001828054611a2690612f9f565b8015611a735780601f10611a4857610100808354040283529160200191611a73565b820191906000526020600020905b815481529060010190602001808311611a5657829003601f168201915b5050505050815250508152602001600582018054611a9090612f9f565b80601f0160208091040260200160405190810160405280929190818152602001828054611abc90612f9f565b8015611b095780601f10611ade57610100808354040283529160200191611b09565b820191906000526020600020905b815481529060010190602001808311611aec57829003601f168201915b50505050508152602001600682018054611b2290612f9f565b80601f0160208091040260200160405190810160405280929190818152602001828054611b4e90612f9f565b8015611b9b5780601f10611b7057610100808354040283529160200191611b9b565b820191906000526020600020905b815481529060010190602001808311611b7e57829003601f168201915b505050505081526020016007820154815260200160088201805480602002602001604051908101604052809291908181526020016000905b82821015611c7f578382906000526020600020018054611bf290612f9f565b80601f0160208091040260200160405190810160405280929190818152602001828054611c1e90612f9f565b8015611c6b5780601f10611c4057610100808354040283529160200191611c6b565b820191906000526020600020905b815481529060010190602001808311611c4e57829003601f168201915b505050505081526020019060010190611bd3565b50505050815260200160098201805480602002602001604051908101604052809291908181526020018280548015611d0c57602002820191906000526020600020905b8160009054906101000a900473ffffffffffffffffffffffffffffffffffffffff1673ffffffffffffffffffffffffffffffffffffffff1681526020019060010190808311611cc2575b505050505081525050815260200190600101906117ab565b50505050905090565b60016020528060005260406000206000915090508054611d4c90612f9f565b80601f0160208091040260200160405190810160405280929190818152602001828054611d7890612f9f565b8015611dc55780601f10611d9a57610100808354040283529160200191611dc5565b820191906000526020600020905b815481529060010190602001808311611da857829003601f168201915b505050505081565b6000600160003373ffffffffffffffffffffffffffffffffffffffff1673ffffffffffffffffffffffffffffffffffffffff1681526020019081526020016000208054611e1990612f9f565b905014611e5b576040517f08c379a0000000000000000000000000000000000000000000000000000000008152600401611e5290612c77565b60405180910390fd5b600073ffffffffffffffffffffffffffffffffffffffff16600285604051611e839190612b56565b908152602001604051809103902060000160009054906101000a900473ffffffffffffffffffffffffffffffffffffffff1673ffffffffffffffffffffffffffffffffffffffff1614611f0b576040517f08c379a0000000000000000000000000000000000000000000000000000000008152600401611f0290612c37565b60405180910390fd5b6040518060a001604052803373ffffffffffffffffffffffffffffffffffffffff16815260200184815260200185815260200183815260200182815250600285604051611f589190612b56565b908152602001604051809103902060008201518160000160006101000a81548173ffffffffffffffffffffffffffffffffffffffff021916908373ffffffffffffffffffffffffffffffffffffffff1602179055506020820151816001019080519060200190611fc992919061207e565b506040820151816002019080519060200190611fe692919061207e565b50606082015181600301908051906020019061200392919061207e565b50608082015181600401908051906020019061202092919061207e565b5090505083600160003373ffffffffffffffffffffffffffffffffffffffff1673ffffffffffffffffffffffffffffffffffffffff168152602001908152602001600020908051906020019061207792919061207e565b5050505050565b82805461208a90612f9f565b90600052602060002090601f0160209004810192826120ac57600085556120f3565b82601f106120c557805160ff19168380011785556120f3565b828001600101855582156120f3579182015b828111156120f25782518255916020019190600101906120d7565b5b5090506121009190612233565b5090565b828054828255906000526020600020908101928215612153579160200282015b8281111561215257825182908051906020019061214292919061207e565b5091602001919060010190612124565b5b5090506121609190612250565b5090565b8280548282559060005260206000209081019282156121dd579160200282015b828111156121dc5782518260006101000a81548173ffffffffffffffffffffffffffffffffffffffff021916908373ffffffffffffffffffffffffffffffffffffffff16021790555091602001919060010190612184565b5b5090506121ea9190612233565b5090565b6040518060a00160405280600073ffffffffffffffffffffffffffffffffffffffff168152602001606081526020016060815260200160608152602001606081525090565b5b8082111561224c576000816000905550600101612234565b5090565b5b8082111561227057600081816122679190612274565b50600101612251565b5090565b50805461228090612f9f565b6000825580601f1061229257506122b1565b601f0160209004906000526020600020908101906122b09190612233565b5b50565b60006122c76122c284612d98565b612d73565b905080838252602082019050828560208602820111156122e657600080fd5b60005b8581101561233057813567ffffffffffffffff81111561230857600080fd5b80860161231589826123b7565b855260208501945060208401935050506001810190506122e9565b5050509392505050565b600061234d61234884612dc4565b612d73565b90508281526020810184848401111561236557600080fd5b612370848285612f5d565b509392505050565b6000813590506123878161322b565b92915050565b600082601f83011261239e57600080fd5b81356123ae8482602086016122b4565b91505092915050565b600082601f8301126123c857600080fd5b81356123d884826020860161233a565b91505092915050565b6000813590506123f081613242565b92915050565b60006020828403121561240857600080fd5b600061241684828501612378565b91505092915050565b60006020828403121561243157600080fd5b600082013567ffffffffffffffff81111561244b57600080fd5b612457848285016123b7565b91505092915050565b60008060006060848603121561247557600080fd5b600084013567ffffffffffffffff81111561248f57600080fd5b61249b868287016123b7565b935050602084013567ffffffffffffffff8111156124b857600080fd5b6124c4868287016123b7565b925050604084013567ffffffffffffffff8111156124e157600080fd5b6124ed8682870161238d565b9150509250925092565b6000806000806080858703121561250d57600080fd5b600085013567ffffffffffffffff81111561252757600080fd5b612533878288016123b7565b945050602085013567ffffffffffffffff81111561255057600080fd5b61255c878288016123b7565b935050604085013567ffffffffffffffff81111561257957600080fd5b612585878288016123b7565b925050606085013567ffffffffffffffff8111156125a257600080fd5b6125ae878288016123b7565b91505092959194509250565b6000602082840312156125cc57600080fd5b60006125da848285016123e1565b91505092915050565b60006125ef8383612623565b60208301905092915050565b60006126078383612789565b905092915050565b600061261b838361297d565b905092915050565b61262c81612f21565b82525050565b61263b81612f21565b82525050565b600061264c82612e3a565b6126568185612e8d565b935061266183612df5565b8060005b8381101561269257815161267988826125e3565b975061268483612e66565b925050600181019050612665565b5085935050505092915050565b60006126aa82612e45565b6126b48185612e9e565b9350836020820285016126c685612e05565b8060005b8581101561270257848403895281516126e385826125fb565b94506126ee83612e73565b925060208a019950506001810190506126ca565b50829750879550505050505092915050565b600061271f82612e50565b6127298185612eaf565b93508360208202850161273b85612e15565b8060005b858110156127775784840389528151612758858261260f565b945061276383612e80565b925060208a0199505060018101905061273f565b50829750879550505050505092915050565b600061279482612e5b565b61279e8185612ec0565b93506127ae818560208601612f6c565b6127b7816130d8565b840191505092915050565b60006127cd82612e5b565b6127d78185612ed1565b93506127e7818560208601612f6c565b6127f0816130d8565b840191505092915050565b600061280682612e5b565b6128108185612ee2565b9350612820818560208601612f6c565b80840191505092915050565b6000815461283981612f9f565b6128438186612ee2565b9450600182166000811461285e576001811461286f576128a2565b60ff198316865281860193506128a2565b61287885612e25565b60005b8381101561289a5781548189015260018201915060208101905061287b565b838801955050505b50505092915050565b60006128b8601683612ed1565b91506128c3826130e9565b602082019050919050565b60006128db601783612ed1565b91506128e682613112565b602082019050919050565b60006128fe601a83612ed1565b91506129098261313b565b602082019050919050565b6000612921602583612ed1565b915061292c82613164565b604082019050919050565b6000612944602583612ed1565b915061294f826131b3565b604082019050919050565b6000612967601883612ed1565b915061297282613202565b602082019050919050565b600060c083016000830151848203600086015261299a8282612a22565b915050602083015184820360208601526129b48282612789565b915050604083015184820360408601526129ce8282612789565b91505060608301516129e36060860182612b38565b50608083015184820360808601526129fb828261269f565b91505060a083015184820360a0860152612a158282612641565b9150508091505092915050565b600060a083016000830151612a3a6000860182612623565b5060208301518482036020860152612a528282612789565b91505060408301518482036040860152612a6c8282612789565b91505060608301518482036060860152612a868282612789565b91505060808301518482036080860152612aa08282612789565b9150508091505092915050565b600060a083016000830151612ac56000860182612623565b5060208301518482036020860152612add8282612789565b91505060408301518482036040860152612af78282612789565b91505060608301518482036060860152612b118282612789565b91505060808301518482036080860152612b2b8282612789565b9150508091505092915050565b612b4181612f53565b82525050565b612b5081612f53565b82525050565b6000612b6282846127fb565b915081905092915050565b6000612b79828461282c565b915081905092915050565b600060a082019050612b996000830188612632565b8181036020830152612bab81876127c2565b90508181036040830152612bbf81866127c2565b90508181036060830152612bd381856127c2565b90508181036080830152612be781846127c2565b90509695505050505050565b60006020820190508181036000830152612c0d8184612714565b905092915050565b60006020820190508181036000830152612c2f81846127c2565b905092915050565b60006020820190508181036000830152612c50816128ab565b9050919050565b60006020820190508181036000830152612c70816128ce565b9050919050565b60006020820190508181036000830152612c90816128f1565b9050919050565b60006020820190508181036000830152612cb081612914565b9050919050565b60006020820190508181036000830152612cd081612937565b9050919050565b60006020820190508181036000830152612cf08161295a565b9050919050565b60006020820190508181036000830152612d118184612aad565b905092915050565b60006080820190508181036000830152612d338187612aad565b90508181036020830152612d4781866127c2565b90508181036040830152612d5b81856127c2565b9050612d6a6060830184612b47565b95945050505050565b6000612d7d612d8e565b9050612d898282612fd1565b919050565b6000604051905090565b600067ffffffffffffffff821115612db357612db26130a9565b5b602082029050602081019050919050565b600067ffffffffffffffff821115612ddf57612dde6130a9565b5b612de8826130d8565b9050602081019050919050565b6000819050602082019050919050565b6000819050602082019050919050565b6000819050602082019050919050565b60008190508160005260206000209050919050565b600081519050919050565b600081519050919050565b600081519050919050565b600081519050919050565b6000602082019050919050565b6000602082019050919050565b6000602082019050919050565b600082825260208201905092915050565b600082825260208201905092915050565b600082825260208201905092915050565b600082825260208201905092915050565b600082825260208201905092915050565b600081905092915050565b6000612ef882612f53565b9150612f0383612f53565b925082821015612f1657612f1561304b565b5b828203905092915050565b6000612f2c82612f33565b9050919050565b600073ffffffffffffffffffffffffffffffffffffffff82169050919050565b6000819050919050565b82818337600083830152505050565b60005b83811015612f8a578082015181840152602081019050612f6f565b83811115612f99576000848401525b50505050565b60006002820490506001821680612fb757607f821691505b60208210811415612fcb57612fca61307a565b5b50919050565b612fda826130d8565b810181811067ffffffffffffffff82111715612ff957612ff86130a9565b5b80604052505050565b600061300d82612f53565b91507fffffffffffffffffffffffffffffffffffffffffffffffffffffffffffffffff8214156130405761303f61304b565b5b600182019050919050565b7f4e487b7100000000000000000000000000000000000000000000000000000000600052601160045260246000fd5b7f4e487b7100000000000000000000000000000000000000000000000000000000600052602260045260246000fd5b7f4e487b7100000000000000000000000000000000000000000000000000000000600052604160045260246000fd5b6000601f19601f8301169050919050565b7f557365726e616d6520616c72656164792074616b656e00000000000000000000600082015250565b7f436f6e74656e742063616e6e6f7420626520656d707479000000000000000000600082015250565b7f596f752061726520616c72656164792072656769737465726564000000000000600082015250565b7f596f75206d757374206265207369676e656420757020746f206c696b6520612060008201527f6477656574000000000000000000000000000000000000000000000000000000602082015250565b7f596f75206d757374206265207369676e656420757020746f20706f737420612060008201527f6477656574000000000000000000000000000000000000000000000000000000602082015250565b7f44776565742069642063616e6e6f7420626520656d7074790000000000000000600082015250565b61323481612f21565b811461323f57600080fd5b50565b61324b81612f53565b811461325657600080fd5b5056fea264697066735822122038546ae870baa41b921c8287d58b541625629ac45490cce7e4989b7fd9e2022264736f6c63430008040033",
  "linkReferences": {},
  "deployedLinkReferences": {}
}